:020000040000FA
:106000000817002095620000C1A8000093630000FB
:1060100029A70000857B0000D5E9000000000000F2
:10602000000000000000000000000000F7BD0000BC
:1060300009890000000000001B63000091C50000FA
:106040004D98000059980000659800007198000074
:106050007D9800008998000095980000A1980000A4
:10606000AD980000B9980000C5980000D1980000D4
:10607000DD980000E9980000F59800000199000003
:106080000D99000019990000259900003199000030
:106090003D99000049990000559900006199000060
:1060A0006D99000079990000859900009199000090
:1060B0009D990000A9990000B5990000C1990000C0
:1060C000CD990000D9990000E5990000F1990000F0
:1060D000FD990000099A0000159A0000219A00001D
:1060E0002D9A0000399A0000459A0000519A00004C
:1060F0005D9A0000699A0000759A0000819A00007C
:106100008D9A0000999A0000A59A0000B19A0000AB
:10611000BD9A0000C99A0000D59A0000E19A0000DB
:10612000ED9A0000F99A0000059B0000119B000009
:106130001D9B0000299B0000359B0000419B000037
:10614000519B0000619B0000719B0000819B00003F
:10615000919B0000A19B0000B19B0000C19B00002F
:10616000D19B0000E19B0000F19B0000019C00001E
:10617000119C0000219C0000319C0000419C00000B
:10618000519C0000619C0000719C0000819C0000FB
:10619000919C0000A19C0000B19C0000C19C0000EB
:1061A000D19C0000E19C0000F19C0000019D0000DA
:1061B000119D0000219D0000319D0000419D0000C7
:1061C000519D0000619D0000719D0000819D0000B7
:1061D000919D0000A19D0000B19D0000C19D0000A7
:1061E000D19D0000E19D0000F19D0000019E000096
:1061F000119E0000219E0000319E0000419E000083
:10620000519E0000619E0000719E0000819E000072
:10621000919E0000A19E0000B19E0000C19E000062
:10622000D19E0000E19E0000F19E0000019F000051
:10623000119F0000219F0000319F0000419F00003E
:10624000D7620000D7620000D7620000D76200006A
:10625000D7620000D7620000D7620000D76200005A
:10626000D7620000D7620000D7620000D76200004A
:10627000D7620000D7620000D7620000D76200003A
:10628000DFF80CD000F040FE004800470970000025
:106290000817002010484FF0770101600F484FF0B9
:1062A000770101600E484FF4885101600A484FF0B1
:1062B0007601016009484FF0760101600948804786
:1062C00009480047FEE7FEE7FEE7FEE7FEE7FEE7D8
:1062D000FEE7FEE7FEE7FEE7040805400C08054080
:1062E00000080540CDC6000081620000EFF3108079
:1062F00072B6704780F310887047334A1368012BD9
:1063000004D04FF001031360304A1060304A11602E
:1063100030484FF0805101607047EFF3108272B641
:106320002948016891B14FF00001016027480168D8
:1063300029B1EFF3098121E9F00F006801602449D8
:1063400009680968B1E8F00F81F3098882F31088C1
:106350004EF0040E70471E4908601C494FF00000C3
:10636000086019494FF0010008601B484FF47F0195
:10637000D0F8002041EA0201016016484FF0805138
:10638000016016480068006880F3088861B662B64C
:1063900070471EF0040F0CBFEFF30880EFF3098085
:1063A00020E9F00F40F804ED1EF0040F0CBF80F35D
:1063B000088880F3098800B50BF07CFF5DF804EBDA
:1063C0004EF0040E70470000A80F00201C0E0020A5
:1063D000240E002004ED00E020ED00E008ED00E0D8
:1063E0002DE9F05F0546002092469B46884606460A
:1063F000814640241BE0284641464746224600F09D
:1064000020F853465A46C01A914110D311461846F7
:10641000224600F07DFC2D1A67EB01084F4622460C
:106420000120002100F074FC17EB00094E41201EF2
:10643000A4F10104DFDC484631462A464346BDE864
:10644000F09F202A04DB203A21FA02F00021704755
:1064500021FA02F3D040C2F12002914008431946CC
:10646000704700000048704754510100A0F14101FD
:10647000192900D82030704740EA01039B0703D058
:1064800009E008C9121F08C0042AFAD203E011F873
:10649000013B00F8013B521EF9D27047D2B201E035
:1064A00000F8012B491EFBD270470022F6E710B519
:1064B00013460A4604461946FFF7F0FF204610BD72
:1064C00010B5044604E00B7800F8013B03B1491C09
:1064D000521EF8D2204610BD421C10F8011B0029A4
:1064E000FBD1801A704710B5002200E0521C835C7B
:1064F0008C5CA34201D1002BF8D1D8B2E1B2401A92
:1065000010BDCBB203E00178994203D0401C521E6B
:10651000F9D20020704730B504460020034600E061
:106520005B1C934203D2E05CCD5C401BF8D030BDD5
:10653000034611F8012B00F8012B002AF9D1184667
:10654000704730B505460020034600E05B1C9342CF
:1065500005D2EC5CC85C201A01D1002CF6D130BD0C
:10656000F0B480EA0102D40F4200B2EB410F02D234
:106570000246084611464A0042D0C30DDDB2C1F3BF
:10658000C752AD1A202D35DAC1F3160141F40002CD
:1065900004B15242C5F1200602FA06F12A41104424
:1065A000B3EBD05F23D0C4B1012DA0EBC35009DC05
:1065B000F0BC4FF0004202EAC352DBB200F500002B
:1065C00000F0D0BB400000F1807000EBC350A0F1A0
:1065D000807040EAD170490009E0490841EAC07181
:1065E000A0EBC35000F50000400800EBC350F0BC26
:1065F00000F0AFBB6142012202EB4101001BF6E754
:10660000F0BC704781F00041AAE780F00040A7E7A6
:1066100080EA010210B502F00043400022D04A0097
:106620001FD0010E01EB1261C0F35600C2F35602F7
:1066300040F4000042F40002A0FB022000047F3975
:10664000140400D0401C50EA124001D44000491EFE
:10665000C2B20C0604EBD010401C4008802A02D0C5
:1066600003E0002010BD20F00100002900DA002026
:10667000184310BD30B480EA010202F0004530F04A
:10668000004221F0004013D090B1C30DD40DC2F3ED
:106690001601C0F31600E41A41F4000140F40002B0
:1066A0007D34914201D3641C00E04900002C02DAE1
:1066B00030BC002070474FF400000023914201D30A
:1066C000891A034340084FEA4101F7D151B1914281
:1066D00002D14FF0004105E002D24FF0010101E08C
:1066E0006FF0010103EBC450284430BC00F031BB13
:1066F0002DE9FE4F804681EA0300C00F0C46009052
:1067000021F0004123F00045B8EB0200A94105D279
:106710004046214690461C460B46024623F0004068
:10672000104347D0270DC7F30A00C3F30A51029064
:10673000401A019040286BDAC3F3130040F4801B29
:106740000098924620B10023D2EB030A63EB0B0BB7
:1067500001985946C0F14002504600F0D9FA064669
:106760000D4650465946019A00F0E1FA10EB080038
:106770006141002487EA115284EAE7731A4340D04A
:10678000009A62B3019A012A4FEA075215DC001BF6
:1067900061EB02014FF0004202EA0752CDE90042EC
:1067A000001C41F5801132462B4600F018FB03B067
:1067B000BDE8F08F40462146F9E7001B61EB02017E
:1067C000001C41F5801300185B412018A2F500174A
:1067D00047EB030140EAD570B6196D4111E06D0831
:1067E0004FEA360645EAC0754FEA0752001B61EBD7
:1067F0000201001C41F5801149084FEA30000019E0
:10680000514132462B4603B0BDE8F04F00F0D8BAF4
:106810000098012240000023D0EB020263EBE073FA
:10682000009821464FEAE074B8EB000061EB0401E8
:10683000E9E783F000435BE781F0004158E72DE989
:10684000FE4F81EA030404F0004421F0004100946B
:106850004FF0000B23F0004350EA01045ED052EAEF
:1068600003045BD0C3F30A54C1F30A552C44A4F2C9
:10687000F3340194A0FB0254C1F3130141F48011DD
:10688000C3F3130343F4801301FB024400FB034EE4
:10689000840A970A44EA815447EA8357A4FB0768AD
:1068A00002958D0A05FB07854FEA932C04FB0C54D7
:1068B0002705029D4FEA065847EA1637B5EB08054B
:1068C0006EEB070C870E920E47EA811742EA83129D
:1068D000A7FB0201B6EB0B0164EB00042B0D43EAAE
:1068E0000C335E1844EB1C50DA465146E7FB0201BC
:1068F000C5F313044FEA0B3343EA14534FEA04324F
:10690000019C43EA0603A4F10C040294009CCDE927
:1069100000B400F064FA03B0BDE8F08F0020014637
:10692000F9E72DE9F04D81EA030404F0004B21F072
:10693000004514464FF0000A23F0004150EA0502DA
:1069400020D054EA01021DD0C5F30A570246C5F310
:106950001303C1F31300C1F30A5640F4801543F446
:106960008013A7EB0608101BD64608F2FD3873EB20
:10697000050002D308F1010801E092185B41B8F16B
:10698000000F03DA00200146BDE8F08D00204FF42F
:106990008011064684460EE0171B73EB050705D3EE
:1069A000121B63EB050306434CEA010C49084FEA4E
:1069B000300092185B4150EA0107EDD152EA030022
:1069C00012D082EA040083EA0501084305D0101BB7
:1069D000AB4106D20122002306E000224FF0004323
:1069E00002E06FF0010253101AEB06004CEB085165
:1069F00010EB0A0041EB0B01BDE8F04D00F0E0B9EF
:106A0000002801DBC0F10040002901DBC1F1004199
:106A1000814201D80120704700207047002801DB27
:106A2000C0F10040002901DBC1F10041814201D2E7
:106A30000120704700207047002801DBC0F10040B2
:106A4000002901DBC1F10041814201D901207047D9
:106A50000020704730B5041E71F1000404DB4FF0D4
:106A60000044404264EB0101141E73F1000405DB95
:106A70001C464FF00043524263EB0403801A9941D5
:106A800001D3012030BD002030BD30B5041E71F1AE
:106A9000000404DB4FF00044404264EB0101141E8B
:106AA00073F1000405DB1C464FF00043524263EBD8
:106AB0000403101A8B4101D2012030BD002030BDEB
:106AC00030B5041E71F1000404DB4FF00044404275
:106AD00064EB0101141E73F1000405DB1C464FF04A
:106AE0000043524263EB0403101A8B4101D301208F
:106AF00030BD002030BD30B5041E71F1000404DB50
:106B00004FF00044404264EB0101141E73F1000495
:106B100005DB1C464FF00043524263EB0403801A2E
:106B2000994101D2012030BD002030BD30B5041E96
:106B300071F1000404DB4FF00044404264EB0101BA
:106B4000141E73F1000405DB1C464FF00043524253
:106B500063EB040342404B401A4301D0002030BD98
:106B6000012030BDC10F80EAE0700844CA079623B7
:106B7000002100F0F7B896230022114600F0F2B889
:106B80000EB5C10F80EAE0700844CA07002140F248
:106B900033438DE80E000A460B4600F020F903B09F
:106BA00000BD0EB540F2334102910021CDE9001144
:106BB0000A460B4600F013F903B000BD00F0004296
:106BC00020F00040C10DC0F3160040F400007F2902
:106BD00001DA00207047962903DCC1F19601C84014
:106BE00001E096398840002AF4D04042704720F0F6
:106BF0000040C10DC0F3160040F400007F2901DA07
:106C000000207047962903DCC1F19601C840704707
:106C100096398840704770B5C1F30A5201F00045BB
:106C20000024C1F3130140F2FF3341F480119A4272
:106C300001DA002070BD40F233439A42A2F233429F
:106C400003DC5242FFF7FDFB00E090402C43F1D003
:106C5000404270BDC1F30A5210B5C1F3130140F2B6
:106C6000FF3341F480119A4201DA002010BD40F256
:106C700033439A42A2F2334203DC5242FFF7E1FB74
:106C800010BD904010BD00F0004230F000400AD02E
:106C9000C10D01F56071C0F3160042EA0151C2084E
:106CA00040071143704700200146704701F0004340
:106CB00030B421F0004150EA010206D00A0DA2F5DD
:106CC0006072C1F31301002A02DC30BC002070475F
:106CD000440F44EAC104C100E01830BC00EBC250CC
:106CE00000F037B830B50B460146002020220124C1
:106CF00009E021FA02F59D4205D303FA02F5491B8A
:106D000004FA02F52844151EA2F10102F1DC30BD9F
:106D1000202A04DB203A00FA02F10020704791405B
:106D2000C2F1200320FA03F3194390407047202A50
:106D300006DBCB17203A41FA02F043EAE07306E0A3
:106D400041FA02F3D040C2F12002914008431946B3
:106D500070470029A8BF7047401C490008BF20F0B9
:106D60000100704710B4B0FA80FC00FA0CF050EA51
:106D7000010404BF10BC704749B1CCF1200421FAD2
:106D800004F411FA0CF118BF012121430843A3EBCD
:106D90000C01CB1D4FEA00614FEA102042BF0020DA
:106DA00010BC704700EBC35010440029A4BF10BCB6
:106DB0007047401C490008BF20F0010010BC70471C
:106DC00010B5141E73F1000408DA401C41F10001F3
:106DD00092185B411A4301D120F0010010BD2DE94A
:106DE000F04D92469B4611B1B1FA81F202E0B0FA41
:106DF00080F220329046FFF78BFF04460F4640EAB0
:106E00000A0041EA0B0153465A46084313D0114683
:106E100053EA010019D0C8F140025046FFF711FBB8
:106E200005460E46504659464246FFF771FF084355
:106E300005D0012004E020463946BDE8F08D002051
:106E4000054346EAE0762C4337430A986305E40A93
:106E5000A0EB08000022FD0A44EA47540A3002D59C
:106E600000200146E9E7010510196941DDE90845FF
:106E700000196941BDE8F04DA2E770B521F000436B
:106E800003430CD0C1F30A550024D5EB040564EB91
:106E90000403D617AD1AB34102DB0020014670BDD2
:106EA000201841EB025170BDC1F30A52C1F3130126
:106EB00040F2FF3341F480119A4202DA0020014689
:106EC000704740F233439A42A2F2334202DC52420C
:106ED000FFF7B7BAFFF71CBF30B5041E71F100040D
:106EE00004DB4FF00044404264EB0101141E73F1D7
:106EF000000405DB1C464FF00043524263EB0403E1
:106F0000994208BF904230BD064C074D06E0E0684C
:106F100040F0010394E8070098471034AC42F6D3E0
:106F2000FFF7B2F99C570100BC5701002DE9F04D65
:106F300000231A461B1A8A4103DB00200146BDE8E4
:106F4000F08DC1F30A52C1F3130141F480154FF0E3
:106F5000000BD10702D100186D41521E00270446D4
:106F600040F2FF11384601EB620A3E468046024677
:106F700000204FF48011FFF764FAC2197141BB1869
:106F800046EB0100B4EB030C75EB000C04D3E41AE0
:106F900065EB000517460E46241908F101006D4106
:106FA00080463428E3DDF91946EB0600091BA841A9
:106FB00003D24FF0FF32134601E0002213461BEBD1
:106FC000070046EB0A51BDE8F04DFFF7F9BE30B5BA
:106FD0008C1810F8012B12F00F0301D110F8013BAF
:106FE000120906D110F8012B03E010F8015B01F83B
:106FF000015B5B1EF9D101E001F8013B521EFBD1A0
:10700000A142E6D3002030BD80B50CF0B7FB0020D4
:1070100080BD0000B0B5042298B391B30D79012D65
:1070200009D8C04C0B68A04207D06FF35F23A5B10D
:1070300000F1100413E0042223E01A46002D1FBFC4
:10704000258A2B432382123401BFA5892B43A381B8
:107050000E346FF35F42130C02E000F10C041A4689
:10706000258820302B43238000234AB1D40704D045
:107070008D68DCB201332C5D047001305208F4E7F6
:1070800000221046B0BD00BF40B1012202FA01F15A
:1070900090F8462022EA010180F84610704790F8E7
:1070A0004600C84000F0010070470246042082B349
:1070B00079B310B5002010700B78548803F00303E7
:1070C00024F0300444EA031353804B78548803F0CF
:1070D000010324F0800444EAC31353808B7854885E
:1070E00003F0010324F0400444EA83135380CB7877
:1070F000548863F3010454800979938801F00101F5
:1071000023F0040343EA8101918082F84700BDE83F
:10711000104070470423C0B1012916D810B50123CF
:10712000012A03FA01F190F8463023EA010380F8BE
:10713000463090F8473023EA010408BF43EA0104CF
:10714000002380F84740BDE810401846704718B14A
:1071500001210170002070470420704770B572490A
:1071600000200A220B460E2808BF70BD00241C25F3
:10717000B5F59A7F03D05E5B1C353444F8E7B4FB69
:10718000F2F401EB400502330130A5F83441EAE79F
:10719000B0B5644C00212046FFF781FF012840F084
:1071A000BF80204600210025FFF76EFFB4F866106F
:1071B0005D48018000F11C01B4F8662090F8503160
:1071C000C3EBC30321F82320B4F868204280B4F84D
:1071D000682090F85031C3EBC30301EB83035A805E
:1071E000B4F86A208280B4F86A2090F85031C3EB7A
:1071F000C30301EB83039A80B4F85020C280B4F833
:10720000502090F85031C3EBC30301EB8303DA80C5
:10721000B4F852200281B4F8522090F85031C3EBF8
:10722000C30301EB83031A81B4F854204281B4F8FC
:10723000542090F85031C3EBC30301EB83035A8110
:10724000B4F856208281B4F8562090F85031C3EB40
:10725000C30301EB83039A81B4F86420C281B4F8BC
:10726000642090F85031C3EBC30301EB8303DA8150
:10727000B4F85E200282B4F85E2090F85031C3EB7F
:10728000C30301EB83031A82B4F860204282B4F88E
:10729000602090F85031C3EBC30301EB83035A82A3
:1072A000B4F86E208282B4F86E2090F85031C3EBAF
:1072B000C30301EB83039A82B4F86C20C282B4F852
:1072C0006C2090F85031C3EBC30301EB8303DA82E7
:1072D000B4F862200283B4F8622090F85031C3EB16
:1072E000C30301EB83031A83B4F85C204283B4F830
:1072F0005C2090F85031C3EBC30301EB83014A8358
:1073000090F85011013180F85011C9B20A2907D301
:1073100080F8505105480068BDE8B0400BF09BBCB8
:10732000B0BD00BF00000440B00F0020E0A2FF1F6E
:107330001348144A0169914202D3017819B1704788
:10734000013101617047002101610F4890F89610EA
:1073500081B1B0F8880064280C4823BF022180F86E
:10736000201011A103213CBF80F8201008A10020AB
:1073700004F0E4BB0548022180F82010704700BFEC
:1073800098A2FF1F005C260510BCFF1F2CA0FF1F4A
:107390005444533A5761737456616C7665204C655A
:1073A00076656C5F330A00005444533A5761737436
:1073B00056616C7665204C6576656C5F320A00001C
:1073C00080B588B000204FF48071CDF81A008DF898
:1073D0001E0006A8ADF8181000F0DAFD012000F03C
:1073E000B3FC022005901E20049005200390CDE9F7
:1073F0000100012000F058FD01A800F015FD01F08A
:1074000065FB012001F02AFB01F0EAFA012000F0FF
:10741000D5FC022000F07AFC0128FAD1052000F00A
:107420005BFD08B080BD000010B5174C2079032823
:1074300022D8DFE800F00205081F05F011F81BE074
:1074400000F04AF818E007F0DBFA03F043FA01F025
:107450000BFD01F05DFA04F0C1FA02F00FF804F040
:107460001BFB00F08FFE04F0CDFFFFF761FF05F07E
:10747000D7F801E000F0AAFE02F0B4FF206806F0A1
:1074800078F8206010BD00BF84A3FF1F10B503690A
:107490000469012A06D103F4807004F08071401859
:1074A0000AD115E019B1012912D1182100E00821F3
:1074B0000069C840C0070BD00649002042F2107294
:1074C0000B68B3FBF2F3984202D200BF0130F7E73A
:1074D00010BD00BF1080FF1F2DE9F047DFF890942A
:1074E000DFF890A4012089F800009AF80000052830
:1074F00000F2B581DFE810F00600F30055003A0114
:10750000B1008D010020002602F004F8DFF8885455
:1075100005200421A847DFF884444FF40051208857
:1075200020F0040020800220A84720884FF400713A
:10753000012720F0080020800120A847DFF8600420
:107540004FF400410671208820F0030020800220C3
:10755000A84720884FF4804120F02000208002209E
:10756000A847208820F01000208003F0B1FEB9F871
:107570000200CAF80C60AAF81860CAF80460CAF8D9
:1075800014608AF81060AAF81C60AAF80800DFF8F6
:10759000E803807A012808BF02278AF80070BDE856
:1075A000F087DFF8F443012702204FF4804189F887
:1075B0000B70A047DFF8E463308820F010003080C3
:1075C00003F086FE02204FF40041A04730884FF4BC
:1075D000005120F0200030800220A04730884FF476
:1075E000007120F008003080012003F0CDFA3088CF
:1075F000DFF8AC4340F0020140F003003180217914
:10760000022918BF277130800520042103F0BCFA3D
:10761000308840F004003080D748807A022840F05B
:107620001E8103204FF400718AF80000012003F04E
:10763000A1FA002004212071308820F0030030805E
:10764000052003F097FAB9F80200AAF80A0030887A
:1076500020F004003080BDE8F0870020002601F013
:1076600059FFCD4F052004214FF00508B847CB4DF9
:107670004FF40051288820F0040028800220B847E9
:1076800028884FF40071012420F008002880012090
:10769000B847C3484FF400410671288820F0030022
:1076A00028800220B84728884FF4804120F020002D
:1076B00028800220B847288820F01000288003F096
:1076C00007FEB94903208AF8008089F80A00B54806
:1076D0004C70BAF91A100672C160BDE8F087AE4D61
:1076E00005200421A847AD4E4FF40051308820F00A
:1076F000040030800220A84730884FF4007120F049
:10770000080030800120A847A54800244FF400411C
:107710000471308820F0030030800220A8473088B0
:107720004FF4804120F0200030800220A8473088AC
:1077300020F01000308003F0DBFD4FF4875003F0A1
:10774000E9FD8D48807A01281CBFCAF80440BDE8D5
:10775000F087DAF8040044F6216101308842CAF863
:1077600004007CD302208AF8000075E0BAF81C00FF
:1077700047F231510130AAF81C0080B288420CD384
:10778000BAF90A00B9F90210814206DA062087A187
:107790008AF80000002004F0D1F97F4E0024052073
:1077A000042189F80B40B0477C4D4FF400512888E4
:1077B00020F0040028800220B04728884FF4007190
:1077C00020F0080028800120B04775484FF40041A0
:1077D0000471288820F0030028800220B047288800
:1077E0004FF4804120F0200028800220B0472888F4
:1077F00020F01000288003F06BFD9AF8100001289B
:107800002FD0C8BBB9F902005E282EDC012401206C
:107810002DE003F06DFD4FF4875003F07BFD5648DB
:10782000807A012818D1DAF8040044F62161013089
:107830008842CAF8040012D30024CAF8044003F0B6
:1078400047FD4E48022104704D4801714DA10020B2
:10785000BDE8F04704F072B90020CAF80400BDE8A2
:10786000F087B9F902005F2831DB0224022001F021
:1078700051FE8AF8104016E0DAF80C004EF660214E
:1078800001308842CAF80C000DD3002001F042FEFE
:10789000B9F902204BA10020AAF81A2004F04EF9F1
:1078A00004208AF80000B9F9020064280FDB642084
:1078B0004AA16422AAF81A00002004F03FF904202B
:1078C0008AF80000002001F025FEB9F80200BAF99C
:1078D000081002B28A4222DC8B1E93421FDCBAF9E6
:1078E0000A208A1A152A1ADBDAF81420414B0132D1
:1078F0009A42CAF8142015D3002001F00BFEB9F902
:1079000002203DA10020AAF81A2004F017F9042053
:10791000BAF808108AF80000B9F8020002E0002264
:10792000CAF814200AB201B2914206DD0021AAF879
:107930000800AAF81810BDE8F08751298FDBBAF8C3
:10794000180043F69821884208D143F69920AAF8F6
:1079500018000220BDE8F04701F0DCBD43F6972196
:1079600088423FF67CAF0130AAF81800BDE8F087E6
:107970002CA0FF1F1C80FF1F60D4FF1F98A2FF1FB9
:1079800084A3FF1F676F746F204E6F726D616C5719
:107990006F726B0A0000000075AB000084A2FF1F2D
:1079A00054BBFF1F48B0FF1F10AFFF1F4865617435
:1079B00054616E6B5F54656D206E6F74205550205E
:1079C0000A0000006C6561726E20426F696C506F36
:1079D000696E7454656D3A25640A00006C656172C5
:1079E0006E20426F696C506F696E7454656D313AE8
:1079F00025640A00711101006C6561726E20426F8E
:107A0000696C506F696E7454656D323A25640A0072
:107A100080B502F071FE01F041FE01F08DF804F036
:107A20005DFE0BF0C1FE05F005F805F01DF901F053
:107A300072FA05F0A3FD06F0BBF806F007FA07F0AE
:107A4000ADFA0A484FF47A714068B0FBF1F0811E3C
:107A50000020B0EB116F07D1054AF02351600549B2
:107A60000B7090600720106080BD00BFE0B0FF1F6A
:107A700010E000E023ED00E080B504F0D3FFBDE8A6
:107A8000804007F08CBA80B507F086FAFFF766FBF6
:107A900005F0CAFF06F09AF906F0B1FABDE8804099
:107AA00006F010BB2DE9FE4F00F10408A1F1010A18
:107AB0004FF0000B02900191DA4519DDAAEB0B049F
:107AC0000026C146A64210DA59F8045CD9F80070C5
:107AD00028463946FEF7B0FF013618B149F8047C54
:107AE000C9F8005009F10409ECE70BF1010BE3E7D9
:107AF0000198FFF756F81F4C1F4B804689462246D7
:107B0000FEF79DFEFFF787F81C4B074640464946A7
:107B10002246FEF794FE824602988B4600260024F9
:107B200000EB87053846FFF72BF802460B46504618
:107B30005946FEF7E0FF60B101CDFFF7A4F8024619
:107B40000B4630462146FEF7D3FD06460C4601376C
:107B5000E8E70B4B404649464FF03332FEF76FFEE5
:107B600002460B4630462146FEF7DBFEFFF79EF845
:107B7000BDE8FE8F9A9999999999C93F9999E93FDA
:107B80003333E33F80B5AFF3008080BD0748017A0F
:107B9000022918BF70470021017205484162016A3D
:107BA0000131016203A1002003F0C8BFE8ACFF1F50
:107BB00048B0FF1F46696C746572527374204B4560
:107BC000590A00000C48017D022918BF70470021A6
:107BD00001750A48012141700948C1780131C1701D
:107BE0000848017EB1FA81F1490901760648017021
:107BF00006A1002003F0A2BF84A1FF1F10AFFF1F4A
:107C00005C80FF1F48B0FF1F3C80FF1F4865617408
:107C1000204B45590A0000000548017A022918BF87
:107C200070470021017203A1002003F087BF00BF4D
:107C300084A1FF1F57494649204B45590A000000BF
:107C400000285CD070B52E498A7902F007032D4ACE
:107C5000042B0AD8DFE803F00626032603004FF4BE
:107C600000421FE0284A12681CE0D1F8E060D1F819
:107C7000E030D1F8E040C4F30824D1F8E0501B0F05
:107C8000360605F01F0503D40135B2FBF5F204E01A
:107C90006A1C1D4D2D68B5FBF2F2013401336243BD
:107CA000B2FBF3F202600B68C3F3026322FA03F340
:107CB00043600B68C3F3025322FA03F383600B683B
:107CC00003F0070322FA03F3C3600B68C3F3021344
:107CD00022FA03F303610B68C3F3022322FA03F3CE
:107CE00043610B68C3F3023322FA03F3836109682B
:107CF000C1F3024122FA01F1C161BDE87040704751
:107D00002040054000127A000C80FF1F0A4903281A
:107D100005D8DFE800F00206090C087809E0487988
:107D200007E00878C00804E00878400901E0087816
:107D3000800900F0010070473C4005403948007858
:107D400000F00700704700BF81B000214AF20153E4
:107D500000913449B1F8D82342EA0302A1F8D823AC
:107D600080B1087C00F0FE000874887D009A013222
:107D7000C00700924FF00000009A14D1B2F5805F66
:107D8000F3D310E00878400706D0D1F8DA000006F7
:107D900004D50879C00701D1012004E0087C40F037
:107DA000010008740020B1F8D82342F4254222F0E3
:107DB0000102A1F8D82301B0704700BF81B00021B3
:107DC0004AF2015300911749B1F8D82342EA03025D
:107DD000A1F8D82380B1087900F0FE000871887DF1
:107DE000009A0132800600924FF00000009A0FD4F2
:107DF000B2F5805FF3D30BE0087800F007000528A8
:107E00000FBF0120087940F00100087118BF002061
:107E1000B1F8D82342F4254222F00102A1F8D82378
:107E200001B0704726400540D8B310B591494AF2D9
:107E300001530A881A430A80264A0368146824F00A
:107E4000704444EA03734FF0706403F170431360AD
:107E5000436804EB036314681B0E63F31B64146034
:107E60004FF47004836804EB035314681B0D63F331
:107E7000175414600B4CC36804EB032314681B0AEB
:107E800063F31024146000691368013860F304037D
:107E90001360088840F4254020F001000880BDE808
:107EA0001040704700FF010072494AF2015300F090
:107EB00001000A881A430A80064A136823F08003E7
:107EC00043EAC0101060088840F4254020F001000B
:107ED000088070470041054070B585B000212B4CEB
:107EE000052804915F490A6803924A6802928A68E9
:107EF0000192CA6800925C4A02F101030B615D4B7A
:107F00001D5D03D005F00705052D0DD1584D0D6001
:107F10004FF0FF354D608D60CD60049D01350495B7
:107F2000049DB5F5007FF8D31D884AF2015600F094
:107F3000070035431D801D5D05F0F80528441855E0
:107F4000188840F4254020F001001880002004909B
:107F50000498013004900498B0F5007FF8D303989A
:107F6000086002984860019888600098C860002006
:107F70000A6104900498013004900498B0F5007FE1
:107F8000F8D305B0BDE8704004F00CBB28FCFFFF3F
:107F9000F0B585B000210028049132490A680392A7
:107FA0004A6802928A680192CA6800922E4A02F1D7
:107FB00001030B6154D094462C4A9479964604F000
:107FC0000704052C0DD12A4C0C604FF0FF344C6097
:107FD0008C60CC60049C01340494049CB4F5007F54
:107FE000F8D3244C4AF201562588354325808278FF
:107FF000C37805790678477842EA03124379807995
:1080000042EA052242EA033242EA004040EA0750CF
:1080100040EA066040EA0670CEF80000208840F48E
:10802000254020F0010020800020049004980130B9
:1080300004900498B0F5007FF8D303980860029884
:108040004860019888600098C8600020C1F810C09E
:1080500004900498013004900498B0F5007FF8D3A0
:1080600005B0F0BD008004400000A5A520400540FB
:10807000EEFAFFFFFE4305402DE9F84340F6FC51C0
:108080004FF6EB7688422ED8B0F5947F01D26E265B
:1080900029E0FEF786FD154B002204460D46002719
:1080A000FEF7CDFB894630498046002022462B460C
:1080B000FEF7BFFB02460B4640464946FEF731FC41
:1080C0000B4B0022FEF7BBFBFEF7C4FD0949822FD4
:1080D00008D051F82720824205D37A1CA7F1140654
:1080E0001746F4E76D2630B2BDE8F8830088C34038
:1080F000000024406C82FF1F2DE9F84340F66371B5
:108100004FF6EB7688422AD8B0F5B87F01D26E26BA
:1081100025E0FEF746FD134B002204460D460027DE
:10812000FEF78DFB894610498046002022462B46EB
:10813000FEF77FFB02460B4640464946FEF7F1FB41
:10814000FEF788FD0949822F08D051F82720824286
:1081500005D37A1CA7F114061746F4E76D2630B252
:10816000BDE8F883006AF8400000B0406480FF1F5B
:10817000002221B110F8013B01391A44F9E7D0B2CD
:10818000704700000B48017801B170470A4909782F
:1081900009B100210BE0418C41F27072914205D38C
:1081A0000121017005A1002003F0C8BC0131418408
:1081B000704700BF2CA0FF1F98A2FF1F7379737434
:1081C000656D206C6F636B0A00000000B0B5002085
:1081D000002501F09FF903F07BF8164C01204FF4C5
:1081E0000071A04714484FF400510571134D2888C1
:1081F00020F0030028800220A04728884FF4804107
:1082000020F0080028800220A0472888042120F0C0
:10821000100028800520A04728884FF4004120F056
:10822000040028800220A047288820F02000288011
:10823000B0BD00BF75AB000054BBFF1F84A2FF1F81
:10824000DC49497889B1DC494A8942808A89B2F59A
:10825000807F1CD8828006300023934219D2CA182E
:10826000927BC25401338A89F7E7E6494A89428002
:108270008A89B2F5807F0AD8828006300023934233
:1082800007D2CA18927BC25401338A89F7E70021CA
:1082900081807047DB4900220A60D1F8182401323E
:1082A000C1F818240A79052A16D8DFE802F0031667
:1082B00019200929F12802BF01200871704723E025
:1082C000CA888B18013298734B79CA801844487158
:1082D00090B28A89904211D270470222887201E0DE
:1082E000C87203220A714A791044487170474A796A
:1082F000FF28888102444A710ED080B905200FE022
:1083000028B14A79824202D000204860704700209C
:10831000486001200872704740F2014088810420C3
:108320000871704770B586B0B649DE4ED1F81C248E
:10833000707002F10102C1F81C24A0B19E48827A3B
:10834000531E072B25D8DFE813F008005200560013
:1083500067003201320132016900C17A012940F01F
:108360002681808982E0887A421E072A25D8DFE8A4
:1083700012F008006B006F007C001E011E011C0142
:108380008100C87A032802D0012840F01081888932
:108390006CE0882A44D0AA2A40F00981C27A012AD6
:1083A00000F08D80002A40F00281807B032800F2DB
:1083B000FC80DFE800F019ABA0A0882800F0628004
:1083C000AA2840F0F480C87A012800F078800028BC
:1083D00040F0ED80887B022800F08D80012800F0BD
:1083E0009580002840F0E18006F070FDDDE0C07A65
:1083F000112840D1D9E0C17A0139062900F2D7808D
:10840000DFE801F0316B047C6D6F71008489142CFE
:10841000C0F08E806C4880E0C07A27E0C07A2AE005
:10842000C17A0D2900F2C380DFE801F0BF07BFC1A8
:10843000C186BF8CBF6D8E90BFBF8489162C00F2A1
:10844000B48000F10E012FE0C87A11280ED1ACE003
:10845000C87A0138062800F2AA80DFE800F0043E5E
:108460005A60404244005B4A3EE0C87A012800F06E
:108470009C809CE0C87A012800F09780002800F0DA
:10848000948094E0C87A0D2800F29180DFE800F033
:108490008D078D8F8F688D7D8D3B778F8D8D8C892E
:1084A000162C00F282800E316D4622462846FDF7DA
:1084B000E3FF00202855284602F0ACFD75E0464851
:1084C0000079052873D1887B0F314FF4806206F064
:1084D00019F9424981F8400067E03D4A04E0394A11
:1084E00002E0374A00E0354A5020712106B0BDE86D
:1084F000704007F0D3BD06F0D9FC56E08489142CF7
:1085000028D3F7480FE001F08DFD3BE006F0D6FCE4
:108510004BE08C89F248142C3BD34B3004E08C891F
:10852000EF48142C38D35F302849FEF701F83CE0BF
:10853000EB4901F14B0510E08489062C35D800F198
:108540000E0111E0807B21E0808919E0807B02F040
:108550000FFD2AE0E24901F15F0500F10E011EE086
:108560008C89062C21D80E316D4622462846FDF70F
:1085700083FF00202855284602F07CFD15E08889FD
:10858000022812D001F06AFD0FE0887B02F019FD8D
:108590000BE000F14B0501E000F15F050E312846CC
:1085A0002246FDF769FF002028550120307006B0F3
:1085B00070BD00BFD2ACFF1F8CA3FF1F0E53010084
:1085C000C15201003F53010070D4FF1F2A53010024
:1085D000D25201001A53010084A3FF1F1CD4FF1FB5
:1085E000B0B5AC4C2068072887BF00206060013020
:1085F0002060207A28B1002500202572FFF792FE26
:108600006560B0BDACA7FF1F80B500F04FF8BDE8B6
:108610008040FFF7E5BF0000B0B502462048F223D6
:108620000370137843705478137884709478557875
:10863000C4700424A0F800415488EA1813190022D9
:10864000A0F8044180F80231A4B2A24210D2B0F8DE
:1086500000418B5C651CA0F8005103558B5C90F8C1
:10866000024101322344B0F8044180F80231EBE7C3
:10867000B0F800114A1CA0F80021435484494978FD
:10868000012906D1084800217122BDE8B04007F059
:10869000EDBEB0F80011BDE8B04004F0D3BE00BF9D
:1086A000CCABFF1FD2ACFF1F2B53010070B5D2B073
:1086B0006C464FF483712046FDF7F7FE744801784D
:1086C000002900F0D9800021724D01704078724974
:1086D000002801F10B0201F10A0008BF05F10B02AD
:1086E000167808BF05F10A000078411E072918D83E
:1086F000DFE801F03A0421BEBEBE363EF0B20328E8
:1087000032D3112840F0B4802046FFF799FD06F0DF
:10871000E7FB42AD73492846FDF70AFFA01D294635
:10872000A2E0882837D0AA2840F0A280F0B2012821
:1087300047D0C8B19CE06D462846FFF781FD4FF059
:10874000FF3050FA86F0062800F29280DFE800F051
:108750006B6F737704047B0001208DF8060085E0C1
:10876000F0B2012840F084806846FFF769FD7FE0A1
:10877000F0B2012840F07C8001F070FC2046FFF749
:108780005FFD564966206622ADF80400A01D2C311D
:1087900009F04CFF6CE06D462846FFF751FDF0B242
:1087A0000D2865D8DFE800F05E070764641A1A53E5
:1087B0005322223B3B6A42AE0020314602F02CFBA2
:1087C00011E06846FFF73CFD0120ADF80400424887
:1087D00090F84000002841D0A87B40E042AE002045
:1087E000314602F05BFBA81D31463DE00820ADF8A4
:1087F0000400304801788DF8061042788DF8072083
:1088000083788DF80830C0788DF80C308DF80B2007
:108810008DF80A108DF80D008DF8090028E0002071
:1088200002F0B4FA16E02E49A81D75311CE02C495F
:10883000A81D893118E02A49A81D4B3114E02849A8
:10884000A81D5F3110E02649A81D0A310CE0002068
:1088500002F0BCFA8DF80600012007E000208DF838
:10886000060005E0A81D14A10AF09EFAADF8040068
:10887000A01CA11DFFF7D0FE52B070BD074800F04C
:1088800054FB0246A81D06A10AF08EFAEEE700BFCF
:10889000D2ACFF1FACA7FF1F8CA3FF1F740E1000EC
:1088A00048433332463436304B4554415F257530AA
:1088B00038580000FCDF03005750323334355F4D29
:1088C00061696E5F48433332463436305F312E3152
:1088D0002E302E33000000001CD4FF1F48B0FF1FB5
:1088E00070D4FF1F44BBFF1F10B5064A002331B1EF
:1088F00010F8014BDBB201396340D35CF7E7D8B223
:1089000010BD00BFA651010080B5AFF3008080BD4F
:10891000B0B5154C207830B11449002060804A7CF5
:10892000F2B148741CE0114D687C012818D102F0A6
:10893000DFFC4FF4875002F0EDFC0D48807A0128EF
:108940000FD1608847F230510130608080B2884298
:1089500006D3002068746080BDE8B04002F0B8BC67
:10896000B0BD00206080B0BD98A2FF1F2CA0FF1FEB
:1089700060D4FF1F01F09ABF80B501F025FB01F024
:108980002FFB06F08DFE03F023FF02F099FD04F0AB
:1089900081FC02F0CDFC06F0E5FE02F0D9FB06F00A
:1089A000B9FC00F0C1FD07F057FFFFF72DFEBDE851
:1089B000804000F003BB0000044901280A6822F04F
:1089C000010218BF01320A60704700BF0404014071
:1089D00002490968084018BF01207047100401408F
:1089E0003E480168012902BF43F210210160016085
:1089F000704700BF10B534493F220424CA600A689A
:108A00000B6823F480330B604B6843F001034B6029
:108A10004B6864F306134B600F4B03600023002088
:108A20008C68E40506D401339CB2B4F5805F88BF3E
:108A30000920F5E71023120CC0B2CB604B6823F07D
:108A400070034B604B6823F001034B600B6862F3CB
:108A500010430B6010BD00BF785634121A490A68E3
:108A600060F307120A607047B0B5174A3F2301252B
:108A7000D3601368146824F480341460546844F09C
:108A800001045460546865F30614546001600020CA
:108A900000219468E40506D401318CB2B4F5805FFE
:108AA00088BF0920F5E71021C0B2D160516821F0DC
:108AB00070015160516821F001015160190C136877
:108AC00061F310431360B0BD08040140034840F255
:108AD0002311016043F2102101607047000401403E
:108AE00010B501780D4B427853F8214002F0010295
:108AF00024F0800444EAC21243F82120827853F81B
:108B0000214062F3051443F82140C07853F8212036
:108B100060F30102002043F8212010BD1010054031
:108B2000012101FA00F003490A681043086000209F
:108B3000704700BF58100540F0B587B04FF4803043
:108B4000012704AA2021049000200597039001200A
:108B500001F08AFF05208DF80F708DF80C0003A836
:108B6000FFF7BEFF4548019045480090684608F071
:108B7000B3F9BDF90200434C434D4FF0FF360028D6
:108B80000AD400F01F01420907FA01F144F822104B
:108B9000211801F5C07103E000F00F0129440439E8
:108BA000A0220A7007F0D8FF0020012704AA4FF482
:108BB00000618DF8100002208DF814708DF812708D
:108BC00001F052FF0B208DF80F708DF80C0003A8F8
:108BD000FFF786FF2D4801902D480090684608F069
:108BE0007BF9BDF90200B0420ADD00F01F01420925
:108BF00007FA01F144F82210211801F5C07103E0D1
:108C000000F00F0129440439E0220A7007F0A4FFA4
:108C10000020012704AA40218DF8100002208DF8C1
:108C200014708DF8127001F01FFF06208DF80F7080
:108C30008DF80C0003A8FFF753FF16480190164863
:108C40000090684608F048F9BDF90200B0420ADD1C
:108C500000F01F01420907FA01F144F8221021181F
:108C600001F5C07103E000F00F0129440439B0227E
:108C70000A7007F071FF07B0F0BD00BFE58C00007F
:108C80000500130080E200E018ED00E0258E0000F2
:108C90000B0017002D8D00000600140000F00F01DE
:108CA0000122C0F3031002FA01F10D4A32F810302C
:108CB00023EA010122F81010704700BF10B500F040
:108CC0000F010122064B02FA01F1C0F3031233F83F
:108CD0001240214323F81210BDE8104008F06CB98F
:108CE000D6ACFF1F80B50520FFF71AFF0120102129
:108CF00001F040FF7448007B01280BD10A488178BD
:108D000059B1002201310280CAB2052A88BF002170
:108D1000817080BD0448002103E0012181704FF47F
:108D20008071018080BD00BF0CAFFF1FB0B5062071
:108D3000FFF7F6FE124D2878012802D1686801304D
:108D40006860287A01280CD0C0B93548002101227A
:108D500001602A72698100210122BDE8B04004F05F
:108D60006BB82F4C00210022204604F065F8204605
:108D7000002104F090F8688102202872B0BD00BF85
:108D80009895FF1FB0B50720FFF7CAFE0F4D287852
:108D900001280CD0C0B90E480021012241602A7080
:108DA000698001210122BDE8B04004F045B8084CBB
:108DB00001210022204604F03FF82046012104F062
:108DC0006AF8688002202870B0BD00BF74BBFF1F26
:108DD00000440240B0B50820FFF7A2FE0F4D2878EE
:108DE00001280CD0C0B90E480021012241602A7030
:108DF000698001210122BDE8B04004F01DB8084C93
:108E000001210022204604F017F82046012104F039
:108E100042F8688002202870B0BD00BF10BCFF1F60
:108E20000040024010B50B20FFF77AFE0C4C207872
:108E300001280BD090B90B4800210122016061800C
:108E400022700121BDE8104004F0FEB80548016819
:108E50006180002104F0F8F80220207010BD00BFEE
:108E600050A2FF1F0050014010B51548007840B1D6
:108E70001448002102788160012A04BF416001701A
:108E800002E01148C07A00B110BD0E4C20780128D4
:108E90000DD160680E4901308842606083BF0020B8
:108EA0002070606001F0D6FA0020A06010BDA068BC
:108EB000064901308842A060E6D30120207010BD31
:108EC00098A2FF1FDCACFF1F2CA0FF1F003D8F608E
:108ED00010980200BCB5044600206FF07F45B0EB4F
:108EE000944F019510D1FFF7F1FD0120FFF764FDCC
:108EF00001954FF48070FFF76BFD012805D00198B4
:108F0000411E00280191F4D1BCBD2046FFF772FD3F
:108F1000FFF766FDBCBD704770472AB110F8013BF2
:108F2000013A01F8013BF8E7704700687047704765
:108F300070B58B070AD0144B15461C462DB111F89D
:108F4000016B013D04F8016BF8E719460F4C9307DC
:108F50004FF001054FEA9203C4E9011018BF05EB79
:108F60009203002523809AB2954228BF70BD0968FC
:108F700000F00EF8D4E90110013504300431C4E9E1
:108F800001102388EFE700BF80D9FF1F38A1FF1F22
:108F9000B0B50C460546FFF799FD0120FFF70CFD23
:108FA0004FF48070FFF714FD0128F9D128462146BF
:108FB000FFF75AFDBDE8B040FFF712BDB0B5DFF8CE
:108FC000B01440F24C4240F21113DFF8A844B1F85B
:108FD00034015043B0FBF3F0E082B1F83651554311
:108FE000B5FBF3F56585B1F838515543B5FBF3F59D
:108FF000E587B1F83A515543B5FBF3F52584DFF821
:109000007456B1F83C115143B1FBF3F1A1862978B4
:10901000890703D40020A061207544E0012180B2BB
:109020002175218BB0F5C87F15D9B1F57A7F17D39B
:10903000207F02280CD00720FFF740FEDFF838061B
:1090400001214170DFF82406018941F0800101818E
:109050000220207706E0002900F06581481E00E02C
:10906000481C2083E18A608B632915D8B0F57A7F8C
:1090700017D3207F01280CD00720FFF71FFEDFF851
:10908000F80501214170DFF8E405018941F0800114
:1090900001810120207706E0002800F0538101388B
:1090A00000E0013060832888400704D40020E0629B
:1090B00084F8280049E00120618D84F82800A08D03
:1090C000B1F5C87F17D3B0F57A7F19D394F8300083
:1090D00002280CD00A20FFF7F1FDDFF89C050121E2
:1090E0004170DFF88805018941F480610181022027
:1090F00084F8300006E0002800F03381013800E0F9
:109100000130A085608D632816D8E08DB0F57A7F98
:1091100019D394F8300001280AD00A20FFF7CEFDB9
:10912000D54801214170F748018941F480610181EE
:10913000012084F8300008E0A08D002800F0218193
:10914000E08D013800E00130E0852888000704D474
:109150000020206484F83C0049E00120E18F84F87D
:109160003C00B4F84000B1F5C87F15D3B0F57A7F64
:1091700017D394F8440002280AD00920FFF79EFD77
:10918000BD4801214170DF48018941F4007101812E
:10919000022084F8440007E0002800F00281013832
:1091A00000E00130A4F84000E18FB4F842006329E8
:1091B00015D8B0F57A7F17D394F8440001280AD067
:1091C0000920FFF77BFDAC4801214170CD480189A2
:1091D00041F400710181012084F8440007E0002877
:1091E00000F0F080013800E00130A4F84200288847
:1091F000C00604D40020C4F82200A07744E0012077
:10920000218CA077608CB1F5C87F15D3B0F57A7F3B
:1092100017D994F8260002280AD00820FFF74EFD3F
:10922000954801214170B748018941F4807101815D
:10923000022084F8260006E0002800F0D4800138DF
:1092400000E001306084218CA08C632915D8B0F532
:109250007A7F17D394F8260001280AD00820FFF758
:109260002DFD854801214170A648018941F4807196
:109270000181012084F8260006E0002800F0C48067
:10928000013800E00130A0842888800605D4002041
:10929000C4F8360084F83200B0BD012084F83200F2
:1092A000E08EB0F5C87F15D3B0F57A7F17D394F868
:1092B0003A0002280AD00B20FFF700FDEE480121FA
:1092C0004170EA48018941F400610181022084F87B
:1092D0003A0006E0002800F0A880013800E00130E4
:1092E000E086A18E208F632915D8B0F57A7F17D339
:1092F00094F83A0001280AD00B20FFF7DFFCDE4883
:1093000001214170D948018941F4006101810120A6
:1093100084F83A00B0BD002800F09880013800E0E1
:1093200001302087B0BD207F02287FF49BAE002053
:1093300020770720FFF7B2FCCC48018921F080019B
:1093400001818FE6207F01287FF4ADAE00202077D9
:109350000720FFF7A3FCC548018921F080010181A6
:10936000A1E694F8300002287FF4CCAE00202077EC
:109370000A20FFF793FCBD48018921F48061018137
:10938000C0E694F8300001287FF4DFAE002020779B
:109390000A20FFF783FCB548018921F4806101812F
:1093A000D3E694F8440002287FF4FEAE002084F84F
:1093B00044000920FFF772FCAC48018921F40071D8
:1093C0000181F1E694F8440001287FF410AF0020F9
:1093D00084F844000920FFF761FCA448018921F4C6
:1093E0000071018103E794F8260002287FF42BAF77
:1093F000002084F826000820FFF750FC9B480189D4
:1094000021F4807101811EE794F8260001287FF481
:109410003BAF002084F826000820FFF73FFC93486C
:10942000018921F4807101812EE794F83A00022825
:109430007FF457AF002084F83A000B20FFF72EFC92
:109440008A48018921F4006101814AE794F83A00D1
:1094500001287FF421AF002084F83A000B20FFF7A9
:109460001DFC8248018921F400610181B0BD00BF6B
:10947000B00F002098A2FF1F10AFFF1FB0B57B4CAC
:10948000207C48B91E480078012805D11E48007884
:10949000012801D8E07A20B10020BDE8B04000F0FA
:1094A00039B81A48807A0028F6D0194DB4F902006C
:1094B000B5F91A10A1F10A02824206DD053900222F
:1094C0008142A2730ADD012009E0A37B4A1F1BB180
:1094D000824211DD0220E0E78242F4DC022000F04B
:1094E00019F8B5F91A00B4F90210814207DB03201C
:1094F000A0720120A07302E002398142CCDDB0BD30
:109500003C80FF1F2CA0FF1F98A2FF1F60D4FF1FED
:109510001C80FF1F421E5449012A03D80A78032ADF
:1095200000D1704708707047B0B54F4C20780328C1
:1095300053D8DFE800F002142A444C4800214C4D77
:10954000818101204021A84701208021A8470120D6
:109550001021A8474748018821F4C0712DE04348F5
:109560004FF4807181810120102101F003FB012063
:10957000402101F009FB0120802101F005FB3D485D
:10958000018821F4C071803117E03848012101734E
:10959000817B00294FF0010108BF022141730120A6
:1095A000802101F0E7FA0120402101F0EDFA314875
:1095B000018841F4807121F0800101800CE02B488A
:1095C00000212B4D818101204021A84701208021CD
:1095D000A84701201021A8472078411E01291FD843
:1095E00061684A1CB4F9081062605E2925DC022813
:1095F0001CD0012821D147F23050B2FBF0F303FB1D
:109600001020D0B9194DB5F9020088420CDC0220B7
:10961000FFF754FB18480121417028891BA11AE06B
:1096200000206060114840882081B0BD4EF6602067
:10963000B2FBF0F303FB102000B1B0BD0B4DB5F948
:1096400002008842F0DC0220FFF738FB0A480121C3
:109650004170288909A140F0040028810020BDE85C
:10966000B04002F06BBA00BFF4ACFF1F2CA0FF1F8C
:1096700075AB000084A2FF1F10AFFF1F536D616C1C
:109680006C20486561745F4572720A0048696768BA
:1096900020486561745F4572720A000080B500F071
:1096A00017F8BDE88040AFF300801CB500206C4681
:1096B0004FF40071CDE900000220224601F0D4F9F8
:1096C00000204FF48071224601F0CEF91CBD00004D
:1096D0007CB54FF400706C46594D4FF48071019089
:1096E0000120224600900120A847564E01204FF449
:1096F0008071B04701204FF400712246A847012035
:109700004FF40071B047052004212246A8470520E8
:109710000421B04702204FF400512246A8470220FE
:109720004FF40051B04702204FF480412246A84731
:1097300002204FF48041B04702204FF400412246FE
:10974000A84702204FF40041B047052001212246DE
:10975000A84705200121B047052002212246A8473D
:1097600005200221B047012040212246A8470120C0
:109770004021B047012080212246A84701208021B6
:10978000B047012010212246A84701201021B047F0
:1097900002204FF480612246A84702204FF48061E6
:1097A000B04700204FF400412246A84700204FF464
:1097B0000041B04700204FF480512246A8470020C6
:1097C0004FF48051B04700204FF400612246A84773
:1097D00000204FF40061B047012004212246A84731
:1097E00001200421B04701204FF480612246A847A0
:1097F00001204FF48061B04701204FF48051224690
:10980000A84701204FF48051B04701204FF4005188
:109810002246A84701204FF40051B04701200821FB
:109820002246A84701200821B047074C10200021FC
:10983000A04704200021A04708200021A0477CBDAC
:1098400069AA000075AB00002DAA0000BF4800689F
:1098500000B10047704700BFC048406800B10047F2
:10986000704700BFC148806800B10047704700BF23
:10987000C248C06800B10047704700BFC3480069D4
:1098800000B10047704700BFC448406900B10047BD
:10989000704700BFC548806900B10047704700BFEE
:1098A000C648C06900B10047704700BFC748006A9A
:1098B00000B10047704700BFC848406A00B1004788
:1098C000704700BFC948806A00B10047704700BFB9
:1098D000CA48C06A00B10047704700BFCB48006B60
:1098E00000B10047704700BFCC48406B00B1004753
:1098F000704700BFCD48806B00B10047704700BF84
:10990000CE48C06B00B10047704700BFCF48006C25
:1099100000B10047704700BFD048406C00B100471D
:10992000704700BFD148806C00B10047704700BF4E
:10993000D248C06C00B10047704700BFD348006DEB
:1099400000B10047704700BFD448406D00B10047E8
:10995000704700BFD548806D00B10047704700BF19
:10996000D648C06D00B10047704700BFD748006EB1
:1099700000B10047704700BFD848406E00B10047B3
:10998000704700BFD948806E00B10047704700BFE4
:10999000DA48C06E00B10047704700BFDB48006F77
:1099A00000B10047704700BFDC48406F00B100477E
:1099B000704700BFDD48806F00B10047704700BFAF
:1099C000DE48C06F00B10047704700BFDF48D0F8E5
:1099D000800000B100477047E048D0F8840000B133
:1099E00000477047E148D0F8880000B10047704751
:1099F000E248D0F88C0000B100477047E348D0F847
:109A0000900000B100477047E448D0F8940000B1DE
:109A100000477047E548D0F8980000B1004770470C
:109A2000E648D0F89C0000B100477047E748D0F8FE
:109A3000A00000B100477047E848D0F8A40000B18A
:109A400000477047E948D0F8A80000B100477047C8
:109A5000EA48D0F8AC0000B100477047EB48D0F8B6
:109A6000B00000B100477047EC48D0F8B40000B136
:109A700000477047ED48D0F8B80000B10047704784
:109A8000EE48D0F8BC0000B100477047EF48D0F86E
:109A9000C00000B100477047F048D0F8C40000B1E2
:109AA00000477047F148D0F8C80000B10047704740
:109AB000F248D0F8CC0000B100477047F348D0F826
:109AC000D00000B100477047F448D0F8D40000B18E
:109AD00000477047F548D0F8D80000B100477047FC
:109AE000F648D0F8DC0000B100477047F748D0F8DE
:109AF000E00000B100477047F848D0F8E40000B13A
:109B000000477047F948D0F8E80000B100477047B7
:109B1000FA48D0F8EC0000B100477047FB48D0F895
:109B2000F00000B100477047FC48D0F8F40000B1E5
:109B300000477047FD48D0F8F80000B10047704773
:109B4000FE48D0F8FC0000B10047704700ADFF1F91
:109B5000FE48D0F8000100B10047704700ADFF1F7C
:109B6000FA48D0F8040100B10047704700ADFF1F6C
:109B7000F648D0F8080100B10047704700ADFF1F5C
:109B8000F248D0F80C0100B10047704700ADFF1F4C
:109B9000EE48D0F8100100B10047704700ADFF1F3C
:109BA000EA48D0F8140100B10047704700ADFF1F2C
:109BB000E648D0F8180100B10047704700ADFF1F1C
:109BC000E248D0F81C0100B10047704700ADFF1F0C
:109BD000DE48D0F8200100B10047704700ADFF1FFC
:109BE000DA48D0F8240100B10047704700ADFF1FEC
:109BF000D648D0F8280100B10047704700ADFF1FDC
:109C0000D248D0F82C0100B10047704700ADFF1FCB
:109C1000CE48D0F8300100B10047704700ADFF1FBB
:109C2000CA48D0F8340100B10047704700ADFF1FAB
:109C3000C648D0F8380100B10047704700ADFF1F9B
:109C4000C248D0F83C0100B10047704700ADFF1F8B
:109C5000BE48D0F8400100B10047704700ADFF1F7B
:109C6000BA48D0F8440100B10047704700ADFF1F6B
:109C7000B648D0F8480100B10047704700ADFF1F5B
:109C8000B248D0F84C0100B10047704700ADFF1F4B
:109C9000AE48D0F8500100B10047704700ADFF1F3B
:109CA000AA48D0F8540100B10047704700ADFF1F2B
:109CB000A648D0F8580100B10047704700ADFF1F1B
:109CC000A248D0F85C0100B10047704700ADFF1F0B
:109CD0009E48D0F8600100B10047704700ADFF1FFB
:109CE0009A48D0F8640100B10047704700ADFF1FEB
:109CF0009648D0F8680100B10047704700ADFF1FDB
:109D00009248D0F86C0100B10047704700ADFF1FCA
:109D10008E48D0F8700100B10047704700ADFF1FBA
:109D20008A48D0F8740100B10047704700ADFF1FAA
:109D30008648D0F8780100B10047704700ADFF1F9A
:109D40008248D0F87C0100B10047704700ADFF1F8A
:109D50007E48D0F8800100B10047704700ADFF1F7A
:109D60007A48D0F8840100B10047704700ADFF1F6A
:109D70007648D0F8880100B10047704700ADFF1F5A
:109D80007248D0F88C0100B10047704700ADFF1F4A
:109D90006E48D0F8900100B10047704700ADFF1F3A
:109DA0006A48D0F8940100B10047704700ADFF1F2A
:109DB0006648D0F8980100B10047704700ADFF1F1A
:109DC0006248D0F89C0100B10047704700ADFF1F0A
:109DD0005E48D0F8A00100B10047704700ADFF1FFA
:109DE0005A48D0F8A40100B10047704700ADFF1FEA
:109DF0005648D0F8A80100B10047704700ADFF1FDA
:109E00005248D0F8AC0100B10047704700ADFF1FC9
:109E10004E48D0F8B00100B10047704700ADFF1FB9
:109E20004A48D0F8B40100B10047704700ADFF1FA9
:109E30004648D0F8B80100B10047704700ADFF1F99
:109E40004248D0F8BC0100B10047704700ADFF1F89
:109E50003E48D0F8C00100B10047704700ADFF1F79
:109E60003A48D0F8C40100B10047704700ADFF1F69
:109E70003648D0F8C80100B10047704700ADFF1F59
:109E80003248D0F8CC0100B10047704700ADFF1F49
:109E90002E48D0F8D00100B10047704700ADFF1F39
:109EA0002A48D0F8D40100B10047704700ADFF1F29
:109EB0002648D0F8D80100B10047704700ADFF1F19
:109EC0002248D0F8DC0100B10047704700ADFF1F09
:109ED0001E48D0F8E00100B10047704700ADFF1FF9
:109EE0001A48D0F8E40100B10047704700ADFF1FE9
:109EF0001648D0F8E80100B10047704700ADFF1FD9
:109F00001248D0F8EC0100B10047704700ADFF1FC8
:109F10000E48D0F8F00100B10047704700ADFF1FB8
:109F20000A48D0F8F40100B10047704700ADFF1FA8
:109F30000648D0F8F80100B10047704700ADFF1F98
:109F40000248D0F8FC0100B10047704700ADFF1F88
:109F500080B51A48002102F09EFF194903460A689D
:109F6000824228BF03F580339A1AC1E900021548DE
:109F70000068022807D38868904288BF8A60C86852
:109F8000904238BFCA6080BD80B50C48002102F005
:109F900082FF0B490A68824228BF00F58030801A90
:109FA000084A08611268022A07D34A69824288BFB8
:109FB00048618A69824238BF886180BD004402409E
:109FC0004080FF1F84A3FF1F80B505F02FFBFDF726
:109FD00023FEFDF7F7FDBDE88040FDF7D7BD00008B
:109FE00010B50E4CE07838B1606838B101308108A6
:109FF0007C2988BF00200FE000200DE0C348084AFC
:10A00000712100780138B0FA80F04009607050206A
:10A0100006F044F860680130606010BD5C80FF1F8E
:10A020003353010010B5FCF761F9044608F07AF8E3
:10A03000FEF77DFFDF48012101704FF46830FEF725
:10A0400049FF4FF47030FEF745FFFEF765FF08F05B
:10A0500075F82046BDE81040FCF74CB9F8B57248D9
:10A06000734C942206687148211D05684FF47030C6
:10A07000FEF753FF04F10800902106F023FFA4F837
:10A08000980004F19C014FF468309422FEF745FFDC
:10A0900004F1A000902106F015FF711CA4F8300116
:10A0A000681C022904D3012802D8002078A107E007
:10A0B000012900F290800228C0F08D8001206BA160
:10A0C000A070002001F03AFDB4F8982079497A4F49
:10A0D0000020B847626879490020B847B4F83021B9
:10A0E00077490020B847D4F89C2076490020B8472B
:10A0F000A27875490020B847A07868B9B4F89800EC
:10A100006168814208D171494FF470309422FEF7A2
:10A1100004FFC4F8346112E0B4F83001D4F89C10A4
:10A12000814208D169494FF468309422FEF7F5FE68
:10A13000C4F8345103E009F081FC09F06BFC644978
:10A140000020B847614C634900206268B8476269E3
:10A1500061490020B847626A60490020B847226A16
:10A160005F490020B847227A5E490020B847E2687C
:10A170005D490020B84722695C490020B847227E2B
:10A180005B490020B847627E5AA10020B8475D496C
:10A190000020B847207A08B10120207240F2E73051
:10A1A0002061E068A0F151011429574928BF6320BC
:10A1B0004883207E10B10120207600E00020534922
:10A1C0000870607E022814D0032815D00428504857
:10A1D0004FF0040112E0022928BF022810D209F032
:10A1E0002DFC09F017FC13A10020BDE8F84001F098
:10A1F000A5BC4748022101E0454803210170F8BD94
:10A2000012A1002001F09AFC012E01D10B2D07D2E2
:10A210000B2E01D3012D01D0AE4201D2012000E06E
:10A220000020A07050E700BFFCDF0300FCBF03006C
:10A2300010AFFF1F736563302673656331206E6F47
:10A24000742068617665206C6F670A0073656330FF
:10A250002066696E64206C6F672C736563312066BD
:10A26000696E64206C6F670A0000000073656330DC
:10A27000206E6F742066696E64206C6F672C736546
:10A2800063312066696E64206C6F670A000000000D
:10A29000736563302066696E64206C6F672C73652C
:10A2A0006331206E6F742066696E64206C6F670A7C
:10A2B000000000000A5601003DBB00003C560100B2
:10A2C000235601005E5601005A55010048B0FF1F99
:10A2D00028550100A3550100D2550100BC550100CD
:10A2E000F555010090550100E45501007C55010031
:10A2F0006C550100537570706C794C6576656C3ADD
:10A3000025640A00F65401001C80FF1F3C80FF1FDB
:10A310007884FF1F2DE9F041264F387808B1BDE859
:10A32000F081FBF7E3FF804607F0FCFEFEF7FFFD40
:10A33000214D002001212860D7F834012E4610F16C
:10A34000020F38BF411C56F8042FC7F83411002003
:10A350001AA101F0F3FB3046902106F0B3FDBC7862
:10A3600028604FF47036B4FA84F0002C4FEA501095
:10A37000B87008BF4FF468363046FEF7ABFD304684
:10A3800029469422FEF7D4FD1548002C00F5005014
:10A3900004BF4BF6FC70C0F20300D7F83411FEF78F
:10A3A000F7FDFEF7B9FD07F0C9FE4046BDE8F041F4
:10A3B000FBF7A0BF10AFFF1F48B0FF1F4C6F675FD8
:10A3C000446174612E4469736368617267655365A3
:10A3D000636F6E64546F74616C3A25640A00000008
:10A3E000FCBF030010B514484FF47A7201680131C4
:10A3F000B1FBF2F3016003FB121262B90F4A53681A
:10A40000013353600E4A914205D10E4901224A7030
:10A410000021016004E00B484078012818BF10BDFE
:10A4200009A10020002401F089FB06484470BDE822
:10A430001040FFF76FBF00BFDCB0FF1F48B0FF1F29
:10A4400080EE360010AFFF1F4C6F672053617665BA
:10A450000A00000070B56949884219D301204FF401
:10A46000007100F087FB6848684C0021017120886A
:10A470004FF4005120F003002080022000F07AFB0E
:10A48000208820F008002080614890F8204040E0BB
:10A490005B4988421BD301204FF40071012500F075
:10A4A00073FB5A4C208840F0020140F003002180E9
:10A4B00055490A79022A18BF0D71208002204FF4F5
:10A4C000005100F061FB208840F0080016E04D4983
:10A4D00001F5FA62904221D901204FF40071012563
:10A4E00000F052FB494C208840F0020140F003008C
:10A4F000218045490A79022A18BF0D712080022067
:10A500004FF4004100F036FB208820F0200020802E
:10A5100001242046BDE8704004F0C8BE88421BD923
:10A5200001204FF40071012500F02EFB374C2088EC
:10A5300040F0020140F00300218033490A79022AE9
:10A5400018BF0D71208002204FF4004100F01CFB69
:10A55000208840F02000DAE742F2107188421DD3D3
:10A5600001204FF40071012500F00EFB274C2088DC
:10A5700040F0020140F00300218023490A79022AB9
:10A5800018BF0D71208002204FF4004100F0FCFA4A
:10A59000208840F0200020800024BAE700F098FED8
:10A5A000C14D01204FF40071A8471748174E0024F1
:10A5B0004FF400510471308820F0030030800220F5
:10A5C000A8473088042120F0080030800520A847E3
:10A5D00030884FF4804120F0040030800220A847EA
:10A5E00030884FF4004120F0100030800220A8474E
:10A5F000308820F0200030808BE700BF40900200C0
:10A60000B0AD0100BF57010054BBFF1F84A2FF1F64
:10A610002CA0FF1F10B5114C0221204603F044FE70
:10A62000012803D12046022103F070FD20460121BC
:10A6300003F03AFE012803D12046012103F066FD14
:10A640002046082103F030FE012818BF10BD204627
:10A650000821BDE8104003F059BD00BF00D0014003
:10A6600010B5114C0221204603F01EFE012803D133
:10A670002046022103F04AFD2046012103F014FE8A
:10A68000012803D12046012103F040FD2046082186
:10A6900003F00AFE012818BF10BD20460821BDE8BE
:10A6A000104003F033BD00BF00D4014010B5114C81
:10A6B0000221204603F0F8FD012803D120460221A3
:10A6C00003F024FD2046012103F0EEFD012803D113
:10A6D0002046012103F01AFD2046082103F0E4FD85
:10A6E000012818BF10BD20460821BDE8104003F026
:10A6F0000DBD00BF0010024080B588B001F0E6FF3C
:10A70000FCF75EFEFDF71AFB6846FDF799FA009923
:10A71000044A0348B1FBF2F2C0E9011208B080BD5F
:10A72000E0B0FF1F40420F0080B5AFF3008080BD56
:10A73000B0B5624C2068C0B101382060E07A0728CB
:10A7400000F29580DFE800F004243341505A6E8017
:10A75000AB4D01200421A84701204FF48061A84798
:10A7600001204FF48051A8477CE0A54C0120042132
:10A77000A04701204FF48061A04701204FF4805191
:10A78000A04701204FF400512246BDE8B0401047D9
:10A790000120042100F0EEF901204FF4806100F067
:10A7A000E9F901204FF4805100F0EEF95AE0944DA0
:10A7B00001200421A84701204FF48061A84701200F
:10A7C0004FF4805100F0E0F939E00120042100F05D
:10A7D000D1F901204FF4806100F0D6F901204FF447
:10A7E000805100F0D1F917E0854D01200421A847E0
:10A7F00001204FF4806100F0C7F91CE00120042122
:10A8000000F0C2F901204FF4806100F0BDF9012091
:10A810004FF4805100F0AEF901204FF4005100F0E8
:10A82000A9F924E00120042100F0AEF9744D0120C3
:10A830004FF48061A84701204FF48051A8470120C0
:10A840004FF40051A84712E00120042100F09CF9C8
:10A8500001204FF4806100F08DF901204FF4805108
:10A8600000F088F901204FF4005100F08DF9217AB1
:10A87000E07A61B1411E002808BF07216068E172DB
:10A8800041097C298CBF4FF47A6001300AE0013025
:10A89000C1B2072988BF0020E072606808B10138A2
:10A8A00000E000206060B0BD75AB000003480021EF
:10A8B0004FF47A628172026001817047FCB0FF1F21
:10A8C00080B500F001F880BD01480068004700BF76
:10A8D00014DEFF1F70B5454C207C40B1E07A0028A3
:10A8E0005AD001285BD145484168013156E04049C2
:10A8F000E07A097821B1012852D10220E07270BDBE
:10A90000012859D13E4E02204FF48041B0473D4DC1
:10A910004FF40041288820F0100028800220B04722
:10A92000288820F02000288000F0D2FC02204FF47C
:10A930000051B0472888042120F008002880052015
:10A9400000F022F928884FF40071012640F004003D
:10A950002880012000F018F9288840F0020140F01A
:10A960000300298028490A79022A18BF0E7128801D
:10A97000214DA87A022809D3E17B012906D123A120
:10A980000020002601F0DAF8A87AE6731949097860
:10A990008842A3D10020E07218480021416070BDB8
:10A9A00001299CD0134814490078897A814295D0B6
:10A9B00012480121017091E7022804BF0120E072D2
:10A9C0000D48827A002A3FF489AF0C48012A0178A9
:10A9D00006D0A27BB2FA82F252090A403FF47EAF5F
:10A9E00009B1002101700120E0727CE72CA0FF1F5B
:10A9F00098A2FF1F7884FF1F60D4FF1F90A2FF1F43
:10AA000075AB000084A2FF1F54BBFF1F436C656140
:10AA10007220666F7262696464656E20757365206A
:10AA2000686F742077617465720A0000084A4AF200
:10AA3000015300F01F0001291381118814BF21EA7E
:10AA40000000084310804FF425401081002070471B
:10AA5000F43B0540034A00011058084018BF01208C
:10AA6000704700BF00380540F0B5604B4AF2015412
:10AA70003F4D03EB80101C8000240630102C72D058
:10AA800021FA04F6F6076BD0567830F8027C06F00F
:10AA9000010627F4804747EA863620F8026C96784C
:10AAA00030F8027C06F0010627F4805747EA0636A4
:10AAB00020F8026CD67830F8027C06F0010627F404
:10AAC000007747EA462620F8026C167930F8027CB7
:10AAD00006F0010627F0400747EA861620F8026CC8
:10AAE000967930F8027C06F0010627F0040747EA61
:10AAF000860620F8026C567930F8027C06F00306D0
:10AB000027F0300747EA061620F8026C1678022E66
:10AB10000DD0012E0FD0D6B930F8026C6FF3DF36AE
:10AB200020F8026C30F8026C26F002060DE030F8D6
:10AB3000026C2E4309E030F8026C6FF3DF3620F828
:10AB4000026C30F8026C46F0020620F8026CD679EE
:10AB5000078806F0010627F4807747EA0626068074
:10AB6000043001348AE74FF4254018800020F0BDFE
:10AB70000080FFFF034A0001135A194311520020BD
:10AB8000704700BF0A380540034A0001135A1943B1
:10AB900011520020704700BF0838054070B5013BD6
:10ABA000124C4AF2015502F03F02B3FA83F304EB70
:10ABB00080105B092580002506301B02102D10D067
:10ABC00021FA05F6F60709D0068826F03F06164456
:10ABD0000680068826F480761E4306800430013500
:10ABE000ECE74FF425402080002070BDFC3B054081
:10ABF000044A0129116814BF084321EA00001060CB
:10AC0000704700BF04800440044A0129116814BF42
:10AC1000084321EA00001060704700BF088004402C
:10AC2000044A0129116814BF084321EA000010609A
:10AC3000704700BF0C80044070B5514E514C054622
:10AC40000020F06094F81405082800F29880DFE8EE
:10AC500000F00596961A2A3C465071000026F12D08
:10AC6000A4F8166579D1F125204640F2064184F812
:10AC70001A55FBF71AFC0320257084F814050120EF
:10AC8000A4F8160570BD2802A4F8180594F81A0552
:10AC9000284484F81A05B4F81605411CA4F81615C2
:10ACA0002554042069E094F81A05284484F81A050C
:10ACB000B4F818052844A4F81805B4F81605411C82
:10ACC000A4F816152554052057E0B4F8160584F8A5
:10ACD0001C55411CA4F81615255406204DE0B4F867
:10ACE000160584F81D55411CA4F816152554072097
:10ACF00043E094F81A05284484F81A05B4F81605B8
:10AD0000411CA4F816152554B4F81805013801049F
:10AD1000A4F8180530D080B2B0F5826F2FD9002585
:10AD2000204640F20641A4F81655FBF7BEFB84F816
:10AD3000145570BDB4F816152046FDF7D5FDA84290
:10AD400013D1B4F81605411CA4F81615255401209A
:10AD50003070B0680130B0600CE0204640F206412F
:10AD6000FBF7A3FB84F8146570BD01203070706898
:10AD700001307060002000E0082084F8140570BDE8
:10AD80009CA1FF1F0CB1FF1F02F0C0BF10B16448AF
:10AD9000407870470C4810214278552A0AD1007833
:10ADA00000F0FE02102A08BF0146103A18BF012227
:10ADB000D20001E00822FF20594B5970997801F028
:10ADC000F70111439970704722E0030010B1544815
:10ADD000007870470F48417855290DD10078A0F1CF
:10ADE0001001122913D8012202FA01F111F0071FF4
:10ADF0000DD00021024602E00421FF202022484B12
:10AE00001A709A7802F0FB0211439970704704217E
:10AE1000F4E700BF20E00300F0B587B00C4606461B
:10AE200001A81721FBF741FB1B480078552807D1E3
:10AE30004FF47830FBF750FB05460438132804D351
:10AE400001A8B6B100F048F916E001AE4FF4783130
:10AE50003046FBF76DFB3F2785B1FBF703FB3178ED
:10AE60000068013D405C10F03E0F08BF37700136AE
:10AE7000F2E72A49FBF75CFB012500E0002501A968
:10AE80002046FBF755FB2648817801F0FE01294456
:10AE9000817007B0F0BD00BF17E003007CB5054628
:10AEA00000201B4E0C46CDF803000090F079552889
:10AEB00018D13046FBF710FB062813D16D463146FA
:10AEC0002846FBF735FB0026FBF7CCFA3F21062E80
:10AED00013D0AA5D03689A5C12F03E0F08BFA95513
:10AEE0000136F4E72DB10B48CDF803000A48009075
:10AEF00003E00A496846FBF71BFB69462046FBF75F
:10AF000017FB0748817841F0020181707CBD00BFCA
:10AF100018E0030032676200763461322A53010080
:10AF20004EBBFF1F10B590B06C4600202146FFF7C6
:10AF300073FF09A10020224600F000FE00202146F8
:10AF4000FFF7ACFF06A10020224600F0F7FD00202D
:10AF5000FFF73CFF10B010BD534E3A25730A0000B6
:10AF600077696669747970653A25730A0000000094
:10AF7000B0B58AB001AD04464FF47830242229469A
:10AF8000FDF7CBFF55208DF826408DF82700FBF705
:10AF9000ADF9044607F0C6F8FDF7C9FF4FF4783065
:10AFA000FDF798FF4FF4783029462422FDF7C0FFC3
:10AFB000FDF7B2FF07F0C2F82046FBF79BF90AB095
:10AFC000B0BDB0B58AB001AD04464FF4783024224C
:10AFD0002946FDF7A2FF55208DF824408DF8250065
:10AFE000FBF784F9044607F09DF8FDF7A0FF4FF446
:10AFF0007830FDF76FFF4FF4783029462422FDF7B3
:10B0000097FFFDF789FF07F099F82046FBF772F9E3
:10B010000AB0B0BDB0B58AB0044601A94FF478308B
:10B020002422FDF77AFF2046FBF756FA16281FD890
:10B0300001AD2146284607F0B7FE55208DF81B00CC
:10B04000FBF754F9044607F06DF8FDF770FF4FF475
:10B050007830FDF73FFF4FF4783029462422FDF782
:10B0600067FFFDF759FF07F069F82046FBF742F943
:10B070000AB0B0BDB0B58AB001AC05464FF4783027
:10B0800024222146FDF749FF2846FBF725FA06282A
:10B090001FD104F11800294607F086FE55208DF8CF
:10B0A0002300FBF723F9054607F03CF8FDF73FFFC7
:10B0B0004FF47830FDF70EFF4FF47830214624220C
:10B0C000FDF736FFFDF728FF07F038F82846FBF7B5
:10B0D00011F90AB0B0BD0000B0B586B004461548FD
:10B0E0000025ADF81550009012A0D0E90112C068FB
:10B0F000CDE9011203901448FDF717FF7921134A97
:10B100008DF814508DF8101000F00F01515C8DF87F
:10B110001310C0F30311515C8DF81210C0F303201B
:10B120006946105C8DF811002046FBF701FA06B065
:10B13000B0BD00BF536E456D707479303132333419
:10B140003536373800000000740E100095510100AC
:10B15000B0B5434840F24C41424CB0F8420148433C
:10B1600040F21111B0FBF1F0A0602079022818D054
:10B1700001281FD0002871D100250020C4E9055501
:10B18000A58100F091F8207F002867D03748257707
:10B19000018921F0100101810420BDE8B040FDF7D4
:10B1A0007DBD0020C4E90500A0810020BDE8B040BD
:10B1B00000F07AB8A08940F2DB5188429CBF03308E
:10B1C000A08180B200F070F8A06842F2117188424C
:10B1D0001DD360690130652860613DD30220207174
:10B1E00000206061207F012836D0012504202577CA
:10B1F000FDF764FD1C4845701C48018941F01001B1
:10B2000001811BA1002000F099FCA06801E0002151
:10B21000616180087C281FD8A06940F6B9310130EF
:10B220008842A0611AD300210220A161217F2071F0
:10B23000022913D020770420FDF740FD0A480121A0
:10B2400041700A48018941F0100101810FA10020DD
:10B25000BDE8B04000F072BC0020A061B0BD00BFEE
:10B26000B00F002054BBFF1F10AFFF1F2CA0FF1F0B
:10B27000507265737375726550756D70206F766569
:10B280007263757272656E740A00000050726573A5
:10B290007375726550756D70206F70656E63757231
:10B2A00072656E740A00000040F2DC51074A884261
:10B2B00038BF01466FF0FF0011500029106820F4DC
:10B2C000407008BF00F5007010607047485D014095
:10B2D00080B586480021017102204FF48061FFF79C
:10B2E00049FC0B48018821F04001018080BD00BF6E
:10B2F00080B502204FF48061FFF746FC7B480121B6
:10B3000001710348018841F04001018080BD00BF08
:10B3100084A2FF1F7549B0F5167F98BF4FF41670D1
:10B32000B0F5965F28BF4FF496508881704700BFF4
:10B33000B0B5564C2079012829D194F82000032873
:10B3400072D8DFE800F00231566AB4F84E0040F6D9
:10B35000B8310130A4F84E0080B2884264D3032093
:10B3600084F820000020E081A4F84E00207F00280F
:10B370005AD1012503202577FDF7A0FC45484570EB
:10B380004548018941F00801018148A12CE00020D5
:10B390000021A4F85000E081E06484F820003C48DB
:10B3A000BDE8B04001F050BEB4F8500040F6B831EE
:10B3B0000130A4F8500080B2884235D3032084F8CD
:10B3C00020000020E081A4F85000207F60BB012510
:10B3D00003202577FDF772FC2E4845702E48018921
:10B3E00041F0080101812DA10020BDE8B04000F02E
:10B3F000A5BB207F012809D1002020770320FDF77D
:10B400004DFC2548018921F008010181618C94F8E7
:10B41000210051B948B9002014E01D480021002541
:10B4200001F012FE84F82050B0BDC0EB004008448B
:10B43000FBF7A6FB0B46214902460020FBF771FAF9
:10B44000FBF734FCB4F84C10002504EB8102506289
:10B45000481CA4F84C0080B20A284FF000000DD31D
:10B4600004F124000A21FCF71DFBA4F84C50FBF763
:10B47000A5FBC0EB00104000E0810320C4F84E5053
:10B4800084F8200084F82150B0BD00BF30A2FF1F17
:10B490000050014010AFFF1F2CA0FF1F50756D70B2
:10B4A00020464720455252320A00000050756D7008
:10B4B00020464720455252310A00000060E34641D1
:10B4C00010B50A4C2079022803D0012809D028B1F0
:10B4D00010BD02204FF48061FFF74CFB0020A081DB
:10B4E00000E0A089BDE8104000F002B830A2FF1FC4
:10B4F000084A6FF0FF01B0F5965F28BF4FF49650F1
:10B5000000285050116821F4407108BF01F5007106
:10B5100011607047545901402DE9F84FDFF8B4032A
:10B520000078012818D1DFF8B463307803281ED8DA
:10B53000DFE800F0021F4F71B6F8900042F211717F
:10B540000130A6F8900080B2884210D30020EDA10F
:10B55000F065A6F890001BE0DF48012100220024DE
:10B5600001F06AFCDD480321A0F894400170BDE8B9
:10B57000F88FB6F8920042F211710130A6F89200ED
:10B5800080B28842F3D30020D5A1F065A6F89200DE
:10B5900003203070002000F0D1FA96F896000128C0
:10B5A000E5D0D44890F84E000028E0D101240D20C9
:10B5B00086F89640FDF782FBCF484470CF4801895A
:10B5C00041F400510181CE490020BDE8F84F00F060
:10B5D000B5BA96F8960001280AD1002086F89600A0
:10B5E0000D20FDF75BFBC548018921F40051018165
:10B5F0007088F18851EA000223D0C1EB0141084470
:10B60000FBF7BEFA0B46C44902460020FBF789F956
:10B61000FBF74CFB16E0B6F894000130A6F8940056
:10B6200080B2B0F57A7FA2D3AB480024012100227A
:10B63000A6F8944001F000FCC6F890403470BDE8D4
:10B64000F88F0020317A06EB8102D060481C3072FE
:10B65000C0B20A283FD306F10C000A21FCF722FAF7
:10B66000F065FBF7C4FA0246ACA1002000F066FAD0
:10B67000A248B0F904400C2C32DCF06DFBF703FB60
:10B68000CB4ACC4B04460F46FBF7D9F822463B4643
:10B69000FBF7D5F822463B46FBF7D1F8C64AC74B25
:10B6A00080460D4620463946FBF7C9F822463B4600
:10B6B000FBF7C5F802460B4640462946FBF718F84B
:10B6C000BF4AC04B81468A4620463946FBF7B7F849
:10B6D000BD4CBE4DB8E000203070F080BDE8F88F62
:10B6E000112C2BDCF06DFBF7CEFAA94AA94B0446CE
:10B6F0000F46FBF7A4F822463B46FBF7A0F822468C
:10B700003B46FBF79CF8A44AA44B80460D462046D6
:10B710003946FBF794F822463B46FBF790F8424641
:10B720002B46FAF7E5FF9E4A9E4B81468A46204605
:10B730003946FBF784F89C4C9C4D85E0162C2BDC9D
:10B74000F06DFBF7A0FA8A4A8A4B04460F46FBF7D6
:10B7500076F822463B46FBF772F822463B46FBF75B
:10B760006EF8854A854B80460D4620463946FBF7E4
:10B7700066F822463B46FBF762F842462B46FAF74C
:10B78000B7FF7F4A7F4B81468A4620463946FBF702
:10B7900056F87D4C7D4D57E0F06DFBF774FA074687
:10B7A00088461B2C28DC6A4A6A4B38464146FBF720
:10B7B00046F83A464346FBF742F83A464346FBF71B
:10B7C0003EF8654A654B04460D4638464146FBF750
:10B7D00036F83A464346FBF732F822462B46FAF74C
:10B7E00087FF5F4A5F4B81468A4638464146FBF7F2
:10B7F00026F85D4C5D4D27E04D4A4E4B384641469C
:10B80000FBF71DF83A464346FBF719F83A4643461C
:10B81000FBF715F8484A494B04460D463846414661
:10B82000FBF70DF83A464346FBF709F822462B464C
:10B83000FAF75EFF424A434B81468A463846414604
:10B84000FAF7FDFF404C414D96F88E704A4653463C
:10B8500007F1010B86F88EB0FAF74AFF2A46234615
:10B86000FAF746FF0022002304460D464FF0000879
:10B87000FBF741F9002804BF044605462046294647
:10B88000FBF7E8F906EB870108665FFA8BF00328FF
:10B8900017D386F88E8006F1600207CA0844032198
:10B8A0001044B0FBF1F04AA1A6F8880082B2002053
:10B8B00000F044F9B6F88800C82824BFC720A6F8CD
:10B8C00088000320A6F8068086F808803070BDE85E
:10B8D000F88F00BFACBCFF1F0044024074BBFF1FC9
:10B8E000507572655444532074696D65206F75748A
:10B8F00020320A009895FF1F10AFFF1F2CA0FF1FDA
:10B90000E2540100507572655444532074696D65AA
:10B91000206F757420310A0060E3464150757265EE
:10B920005444535F4672653A256420485A0A000021
:10B93000D66083F1BEB1413E124D4B5ED710E83E5A
:10B94000907AD782596EB53FEFA3EABF1D0A6EC643
:10B95000FABF385F019F413E09B0BC3E35D4EE3E90
:10B9600066D534CAA912B73FA3DBE5BFCE8FDB2A69
:10B97000B8C6D2F8355D493EC88143580FF4EB3E56
:10B98000C802F0AEA973B93F8121B83F60DD2ECC6B
:10B99000D4E8FC125D90433E5C3A90582D4FF43E43
:10B9A0003F8635A1C900BD3F1B94E0BF98AC546CE5
:10B9B0008CC13D6AF4975D3EE024C2434BFAD6BE8B
:10B9C000F6FFC6AA2B2FC13FAB40F1BFFA43A63208
:10B9D000507572655444533A25640A00F8B52A4CF0
:10B9E000A07C01282AD1294D4EF28F2128880130D0
:10B9F000288080B2884225D801204FF400710126AA
:10BA0000FFF7C2F8234D288840F0020140F0030000
:10BA100029801F490A79022A18BF0E712880022046
:10BA20004FF40051FFF7B0F8288840F00800288054
:10BA300094F82000BDE8F84003F038BC134800211A
:10BA40000180F8BD01204FF40071FFF793F8104812
:10BA5000104F00264FF400510671388820F0030083
:10BA600038800220FFF786F8388820F008003880F8
:10BA7000002003F01BFC28884EF66021884224BF7A
:10BA8000A674F8BDF8BD00BF2CA0FF1F0CBCFF1FA3
:10BA900054BBFF1F84A2FF1F704700002DE9F84F21
:10BAA0008A46254900EB4000154601EBC000C16AFB
:10BAB00001F0030102290CD0826A436ADB431A4475
:10BAC000B2F1FF3F01DC036A1A44AA4201DA1546CB
:10BAD00061B35DB3D0E9079400F1240600F12808B2
