:020000040000FA
:100000002084FF1F95020000C5020000C702000007
:10001000C9020000CB020000CD0200000000000079
:10002000000000000000000000000000CF020000FF
:10003000D102000000000000D3020000D502000041
:10004000D7020000D7020000D7020000D70200004C
:10005000D7020000D7020000D7020000D70200003C
:10006000D7020000D7020000D7020000D70200002C
:10007000D7020000D7020000D7020000D70200001C
:10028000DFF80CD000F048F8004800474D0C0000A3
:100290002084FF1F10484FF0770101600F484FF096
:1002A000770101600E484FF4885101600A484FF011
:1002B0007601016009484FF07601016009488047E6
:1002C00009480047FEE7FEE7FEE7FEE7FEE7FEE738
:1002D000FEE7FEE7FEE7FEE7040805400C080540E0
:1002E00000080540410A00008102000030B50B46BD
:1002F000014600202022012409E021FA02F59D4256
:1003000005D303FA02F5491B04FA02F52844151E29
:10031000A2F10102F1DC30BD064C074D06E0E068B9
:1003200040F0010394E8070098471034AC42F6D33C
:10033000FFF7AAFF540C0000740C000010B500F089
:10034000B3F80F4800680F49884213D100F068F8ED
:100350000B4880680B49884202D100F0ADF809E0F3
:1003600000F034F80648806805490969884201D1DF
:1003700000F0A2F84FF4C04000F0D4FA10BD000025
:100380000C80FF1FAA55341270B54FF480464FF40D
:10039000E03400250DE0304600F046FA4FF40052FC
:1003A0002146304600F07AFA06F5005604F500546E
:1003B0006D1C0248C068A842EDD870BD0C80FF1FBC
:1003C00010B54FF4005000F02FFA10BD00200A497C
:1003D000086100BF08E008490A694FF4F031095C80
:1003E0001144054A1161401C03494968A1F50051B7
:1003F0008142F0D8704700000C80FF1F704700005A
:10040000821FFFFFFFFFFFFFFFFFFFFFFFFFFFFF59
:10041000FFFFFFFFFFFFFFFFFFFFFFFFFFFFFFFFEC
:100420001F48007801064FF4E03090F8210001EBFE
:1004300000414FF4E03090F8220001EB00204FF42F
:10044000E03191F823100844164948604FF4E03039
:1004500090F8240001064FF4E03090F8250001EBFD
:1004600000414FF4E03090F8260001EB00204FF4FB
:10047000E03191F8271008440A49886008468088CE
:10048000C0F30C0020B908464068400BC86006E085
:1004900004484068012101EB50300249C8607047B0
:1004A00020C001000C80FF1F4FF40050006801497C
:1004B000086070470C80FF1F10B500F0E5F9FFF7EA
:1004C00063FFFFF77DFF00F0D3F910BD04460D4632
:1004D0002A46214602A000F0B7FA00BFFEE700005E
:1004E00057726F6E6720706172616D6574657273AB
:1004F0002076616C75653A2066696C6520257320ED
:100500006F6E206C696E652025640D0A0000000086
:100510000449486000BF03490968C1F380110029FC
:10052000F9D0704700100240014908607047000090
:100530001404014010B5044600BF0CB1012C00D1D9
:1005400004E04FF4A57105A0FFF7C0FF00BF0C4801
:10055000006864F300000A49086010BD2E2E5C2E6E
:100560002E5C2E2E5C6472697665725C7372635CBD
:1005700068633332663436785F65666D2E630000DB
:100580000C04014010B5044600BF0CB1012C00D191
:1005900003E0DA2107A0FFF799FF00BF012C01D08B
:1005A000012100E000210C48006861F300000A49C5
:1005B000086010BD2E2E5C2E2E5C2E2E5C6472699F
:1005C0007665725C7372635C686333326634367866
:1005D0005F65666D2E6300000404014010B504469B
:1005E00000BF012C0CD0022C0AD0042C08D0082CFF
:1005F00006D0102C04D0202C02D0B4F5807F00D17E
:1006000004E04FF4DA7106A0FFF760FF00BF0D4869
:100610000068204008B1012010BD0020FCE7000068
:100620002E2E5C2E2E5C2E2E5C6472697665725CBA
:100630007372635C68633332663436785F65666D07
:100640002E6300001004014004480068012804D112
:1006500043F210200149086008607047000401401F
:100660002DE9F04104460026002700BF1CB11CB153
:100670002448844200D804E040F21B3122A0FFF756
:1006800025FF00BF3F20FFF74FFF28480068C0F359
:1006900000452648006820F4803024490860012085
:1006A000FFF748FF2148001D006820F0700040302F
:1006B0001E49091D08601E48206005E0701C86B2B6
:1006C000B6F5805F00D90927184808300068C0F3E4
:1006D00000200028F2D01020FFF726FF1348001D4D
:1006E000006820F070001149091D08600020FFF724
:1006F00021FF0E48006865F310400C490860384639
:10070000BDE8F081DFFF07002E2E5C2E2E5C2E2E22
:100710005C6472697665725C7372635C68633332C1
:10072000663436785F65666D2E630000080401400C
:10073000785634122DE9F04104460D464FF000087A
:10074000002700BF1CB11CB12748844200D804E038
:1007500040F23A2125A0FFF7B9FE00BF3F20FFF786
:10076000E3FE2B480068C0F300462948006820F4E7
:100770008030274908600120FFF7DCFE2448001D77
:10078000006820F0700010302149091D08602560C4
:1007900006E0781C87B2B7F5805F01D94FF00908F1
:1007A0001B4808300068C0F300200028F1D0206802
:1007B000A84201D04FF001081020FFF7B5FE144801
:1007C000001D006820F070001149091D086000201C
:1007D000FFF7B0FE0E48006866F310400C49086051
:1007E0004046BDE8F0810000DFFF07002E2E5C2EA2
:1007F0002E5C2E2E5C6472697665725C7372635C2B
:1008000068633332663436785F65666D2E63000048
:100810000804014040F223100249086043F210200E
:10082000086070470004014038B504466FF07F400F
:1008300000908011844200D938BDFFF7EBFF012002
:10084000FFF7A0FE6FF07F40009004E00098411E8B
:10085000009100B9F0E74FF48070FFF7BFFE012868
:10086000F4D12046FFF7FCFEFFF7EEFE00BFE3E702
:1008700004480068012804D143F2102001490860AF
:10088000086070470004014040F2231002490860EC
:1008900043F2102008607047000401402DE9F04742
:1008A00006460F461446B046B946E11704EB91716F
:1008B0008910A4EB810131B92046E11704EB917155
:1008C000C1F38F0506E02046E11704EB9171891012
:1008D000491C8DB24FF0000A0AE04046D9F80010DA
:1008E00000F00AF808F1040809F104090AF1010A04
:1008F000AA45F2D3BDE8F08770B504460D46FFF770
:1009000089FF0120FFF73EFE00BF4FF48070FFF724
:1009100065FE0128F9D129462046FFF70BFFFFF7B6
:1009200093FE70BD2DE9F0410446276807488742D1
:100930000AD90748874207D872B665682E462068EC
:1009400080F3088800BFB047BDE8F0810080FF1F3A
:100950000070022070B50024132001210022002322
:10096000304D2D6805F001051DB12F4D2F4E35601E
:1009700002E02F4D2D4E35602E4D2D7805F00704E9
:10098000062C4CD2DFE804F003080C11151A274D91
:100990002D68294E356042E0284D274E35603EE0F7
:1009A0004FF40045244E356039E0244D224E356029
:1009B00035E04FF40045204E356030E01D4DDA350E
:1009C0002D68C5F3C0131B4D263DD5F80051C5F366
:1009D0000820184DDA352D68290F164D263DD5F81B
:1009E000005105F01F025BB9551C144EB6FBF5F51E
:1009F000461C75434E1CB5FBF6F50F4E35600DE0F9
:100A0000012B0BD1094D2E68551CB6FBF5F5461C84
:100A100075434E1CB5FBF6F5074E356000BF00BFB1
:100A200070BD0000840601400024F4000080FF1F18
:100A3000002D3101264005400480FF1F00127A007E
:100A400000B5FFF787FF00BD0FB4054B10B503A934
:100A5000044A029800F016F810BC5DF814FB000080
:100A60003D0C00000880FF1F02E008C8121F08C1EB
:100A7000002AFAD17047002001E001C1121F002AAC
:100A8000FBD170472DE9FF4F8BB09A460F460546C4
:100A9000002606E025280BD052460D9990476D1C84
:100AA000761C28780028F5D10FB03046BDE8F08FCD
:100AB0000024A0460122604900E0044315F8013FEC
:100AC000203B02FA03F00842F7D128782E2817D1EC
:100AD00015F8010F44F004042A280ED06FF02F02FD
:100AE0002878A0F1300109290AD808EB880102EB27
:100AF000410100EB01086D1CF2E757F8048B6D1CF7
:100B0000287869283ED006DC0028CDD063280BD099
:100B1000642804D136E0732810D075284BD0524693
:100B20000D999047761C85E017F8040B8DF80000AE
:100B300000208DF80100E946012003E057F8049BEE
:100B40004FF0FF3061074FF0000401D40AE0641C4D
:100B500044450DDA8442FADB19F804100029F6D175
:100B600006E0641C8442FCDB19F804100029F8D16B
:100B7000264404E019F8010B52460D999047641E73
:100B8000F8D257E001CF4FF00A0B002802DA4042BA
:100B90002D2102E0210504D52B218DF824100121FF
:100BA00003E0E10705D02021F7E70DF120090891C6
:100BB0000CE00021F9E701CF4FF00A0BF9E75946A5
:100BC000FFF794FB01F1300209F8012D0028F6D15E
:100BD000ADEB090000F1200B600701D44FF00108D4
:100BE000D84502DDA8EB0B0000E000208046002481
:100BF00006E009A85246005D0D999047641C761CDA
:100C000008988442F5DB04E0302052460D99904765
:100C1000761CB8F10001A8F10108F5DC05E019F82F
:100C2000010B52460D999047761CBBF10001ABF1C8
:100C3000010BF4DC6D1C34E70928010000B5024605
:100C40000B46D0B2FFF764FC104600BDFFF776FB01
:100C500000BFFEE7740C00000080FF1F0C000000C6
:100C6000680A0000800C00000C80FF1F14040000C4
:100C7000760A00000024F40000127A000000000050
:040000050000028174
:00000001FF
